:060000000A128A11FC2F18
:100EFE00F000700883120313930008008316031387
:100F0E0088018312031388010730831603138600AA
:100F1E008312031386017F30F000700883160313CB
:100F2E008105080010308316031387008312031304
:100F3E008701F130F000700894053130F000700830
:100F4E0094047F30F0007008831603139405141771
:100F5E0008000A128A1185270A128A110A128A11AA
:100F6E0099270A128A11F401831203130619C02F4E
:100F7E00C12FD42F0130F1007108F40774088800D6
:100F8E000230F3008630F2009930F100F10BCD2FD4
:100F9E00F20BCD2FF30BCD2FBB2F8618D72FD82FBB
:100FAE00DB2F0130F402C52F0618DE2FDF2FF82FAE
:100FBE0074080A128A117F270A128A110230F3006E
:100FCE008630F2009930F100F10BEB2FF20BEB2F84
:100FDE00F30BEB2F74080A128A117F270A128A115B
:100FEE00BB2FBB2F0A128A11002883010A128A1105
:020FFE00B02F12
:08400000FF3FFF3FFF3FFF3FC0
:02400E003B3F36
:00000001FF
