:060000000A128A110E280D
:10000800FE00030EF2000408F3000A08F4000A12C6
:100018008A115E280A128A11112883010A128A118C
:1000280015280A128A1194200A128A11083083129C
:10003800031387000230F8008630F7009930F60085
:10004800F60B2428F70B2428F80B242804308312F5
:10005800031387000230F8008630F7009930F60065
:10006800F60B3428F70B3428F80B342802308312A7
:10007800031387000230F8008630F7009930F60045
:10008800F60B4428F70B4428F80B44280130831258
:10009800031387000230F8008630F7009930F60025
:1000A800F60B5428F70B5428F80B54281A280A1270
:1000B8008A110E2887288717872807178728C030AE
:1000C800F00070088704872807088728FE30F000AA
:1000D80070088B058728831203130608F000F101C6
:1000E8007108003A031979286A287008703A0319C8
:1000F8005F28C03A03196128603A03196328303A27
:10010800031968286A280B188A288B286F2874080E
:100118008A0073088400720E8300FE0E7E0E0900AA
:10012800F0308316031386008701831203138601B8
:1001380087017F30F5007508831603138105883021
:08014800F50075088B040800A6
:08400000FF3FFF3FFF3FFF3FC0
:02400E003B3F36
:00000001FF
