:060000000A128A11FC2F18
:100F8200F8308316031386000130831203138600A0
:100F92004D30F2001930F1004F30F000F00BCF2F3E
:100FA200F10BCF2FF20BCF2FD62F02308312031368
:100FB20086002730F2000D30F1002630F000F00BF1
:100FC200E02FF10BE02FF20BE02F00000430831230
:100FD200031386004D30F2001930F1004F30F0005B
:100FE200F00BF12FF10BF12FF20BF12FF82FC52F90
:0E0FF2000A128A11002883010A128A11C12FE7
:08400000FF3FFF3FFF3FFF3FC0
:02400E003B3F36
:00000001FF
