:060000000A128A11FC2F18
:100F66000F308316031386008312031386017F3026
:100F7600F000700883160313810520309800903026
:100F8600831203139800093083160313990008008F
:100F96000A128A11B3270A128A118312031306084A
:100FA600F100F2017108F3007208F400E62F4130F7
:100FB6009900D02F42309900D02F43309900D02F7E
:100FC60044309900D02F7408003A0319EB2FD02F24
:100FD6007308073A0319E32F0C3A0319E02F063A70
:100FE6000319DD2F033A0319DA2FD02F0A128A11BB
:0A0FF600002883010A128A11CB2F94
:08400000FF3FFF3FFF3FFF3FC0
:02400E003B3F36
:00000001FF
