:060000000A128A11FB2F19
:100BF40007308316031386007F30F00070088105E8
:100C04008312031386010800F20083120313870181
:100C140072088800803087008701C330F100CD302E
:100C2400F000F00B132EF10B132E0800F20020300D
:100C340083120313870072088800A03087002030D5
:100C44008700C330F100CD30F000F00B272EF10BFC
:100C5400272E08000130F3007308F70711307706D8
:100C6400031D352E362E3D2EC0300A128A1106265B
:100C74000A128A11502E21307706031D422E432E6C
:100C8400502E01300A128A1106260A128A11803067
:100C94000A128A1106260A128A11F70108000A129A
:100CA4008A11FA250A128A110A128A1178260A125E
:100CB4008A110A128A11DB260A128A11F5007508B4
:100CC400F600783076060319682E692E5B2E0A1218
:100CD4008A112C260A128A1176080A128A111826F9
:100CE4000A128A115B2E0A128A1100288316031332
:100CF40088018701831203138701880138300A129F
:100D04008A1106260A128A111430F4007930F3008D
:100D1400F30B8A2EF40B8A2E8F2E08300A128A11B6
:100D240006260A128A111430F4007930F300F30B0A
:100D3400992EF40B992E9E2E01300A128A11062642
:100D44000A128A111430F4007930F300F30BA82E40
:100D5400F40BA82EAD2E0C300A128A1106260A12A4
:100D64008A111430F4007930F300F30BB72EF40B2E
:100D7400B72EBC2E80300A128A1106260A128A1156
:100D84001430F4007930F300F30BC62EF40BC62EA6
:100D9400CB2E06300A128A1106260A128A11143042
:100DA400F4007930F300F30BD52EF40BD52EDA2EA4
:100DB40008007030F0007008831203138604F730C3
:100DC400F000700886050619E82EE92EFA2EC330C5
:100DD400F100CD30F000F00BED2EF10BED2E83126F
:100DE40003130608061DF72EF82EF42E3130FA2FC1
:100DF4008618FD2EFE2E0F2FC330F100CD30F000EB
:100E0400F00B022FF10B022F831203130608861C2A
:100E14000C2F0D2F092F3230FA2F0618122F132FF3
:100E2400242FC330F100CD30F000F00B172FF10B5D
:100E3400172F831203130608061C212F222F1E2F9F
:100E44003330FA2F6830F00070088604EF30F00079
:100E54007008860506192F2F302F412FC330F1005B
:100E6400CD30F000F00B342FF10B342F8312031329
:100E74000608061D3E2F3F2F3B2F3430FA2F8618CD
:100E8400442F452F562FC330F100CD30F000F00B26
:100E9400492FF10B492F831203130608861C532F85
:100EA400542F502F3530FA2F0618592F5A2F6B2FE5
:100EB400C330F100CD30F000F00B5E2FF10B5E2F4C
:100EC400831203130608061C682F692F652F36301A
:100ED400FA2F5830F00070088604DF30F0007008F4
:100EE40086050619762F772F882FC330F100CD3071
:100EF400F000F00B7B2FF10B7B2F831203130608FA
:100F0400061D852F862F822F3730FA2F86188B2FB8
:100F14008C2F9D2FC330F100CD30F000F00B902FBB
:100F2400F10B902F831203130608861C9A2F9B2F14
:100F3400972F3830FA2F0618A02FA12FB22FC330C5
:100F4400F100CD30F000F00BA52FF10BA52F83128B
:100F540003130608061CAF2FB02FAC2F3930FA2F1D
:100F64003830F00070088604BF30F0007008860541
:100F74000619BD2FBE2FCF2FC330F100CD30F000A6
:100F8400F00BC22FF10BC22F831203130608061DA8
:100F9400CC2FCD2FC92F2A30FA2F8618D22FD32F3A
:100FA400E42FC330F100CD30F000F00BD72FF10B5C
:100FB400D72F831203130608861CE12FE22FDE2F9E
:100FC4003030FA2F0618E72FE82FF92FC330F1003D
:100FD400CD30F000F00BEC2FF10BEC2F8312031348
:100FE4000608061CF62FF72FF32F2330FA2F78303C
:0C0FF4000800F70183010A128A11512E37
:08400000FF3FFF3FFF3FFF3FC0
:02400E003B3F36
:00000001FF
