:060000000A128A11FC2F18
:100F18000A128A119A270A128A110A128A11C227FA
:100F28000A128A11912F0A128A110028FB3083169F
:100F3800031387008312031395010F3097000630BF
:100F480092002F308316031392000930F6007608BA
:100F5800F5002F30F6007608F4001C30F60076080D
:100F6800F3001F30F6007608F2002A30F600760803
:100F7800F1001F30F6007608F000080075088312AB
:100F880003139500740897001730F800D530F70060
:100F98001630F600F60BCE2FF70BCE2FF80BCE2F10
:100FA8000000730883120313950072089700173026
:100FB800F800D530F7001630F600F60BE12FF70BE6
:100FC800E12FF80BE12F000071088312031395003D
:100FD800700897001730F800D530F7001630F60083
:100FE800F60BF42FF70BF42FF80BF42F0000080082
:080FF80083010A128A118C2FFB
:08400000FF3FFF3FFF3FFF3FC0
:02400E003B3F36
:00000001FF
