:060000000A128A11EC2F28
:100C6E007E088A007F0882000A128A1137260A122D
:100C7E008A118000840A04087D0603190034FF0AD5
:100C8E000319FE0A3B2EF200831203138714720817
:100C9E00860007141430F1007930F000F00B552E59
:100CAE00F10B552E5A2EFE30F000700883120313EE
:100CBE0087050800533445344E34543420342034E0
:100CCE002034203420343A34203400345234453425
:100CDE0043344534493456344534443420343A345C
:100CEE0020340034F200FD30F0007008831203133C
:100CFE0087057208860007141430F1007930F00071
:100D0E00F00B872EF10B872E8C2EFE30F000700824
:100D1E0083120313870508008316031386018312BB
:100D2E000313860180308316031387008312031387
:100D3E00870120308316031398009030831203131B
:100D4E0098000930831603139900080030300A12F8
:100D5E008A1179260A128A111430F4007930F300C0
:100D6E00F30BB72EF40BB72EBC2E30300A128A11AD
:100D7E0079260A128A11D630F300C52EC62EF30B31
:100D8E00C42E000030300A128A1179260A128A11F6
:100D9E003C300A128A1179260A128A1108300A1278
:100DAE008A1179260A128A1101300A128A117926BD
:100DBE000A128A1106300A128A1179260A128A112B
:100DCE000C300A128A1179260A128A11080083122F
:100DDE000313C400C0300A128A1179260A128A112E
:100DEE00383084002030F3000408F4000C30F50095
:100DFE007308840083130008F600F30A7408840055
:100E0E0076088000F40AF50BFF2E83120313C5013A
:100E1E00C601831203134508383E8400831300086D
:100E2E000A128A114A260A128A11013083120313FA
:100E3E00C5070318C60A0030C6074608803AFF00E9
:100E4E0080307F02031D2D2F0B304502031C302FE7
:100E5E00312F102F8312031344080A128A114A26C7
:100E6E000A128A11080083120313C40080300A127A
:100E7E008A1179260A128A11383084002C30F30038
:100E8E000408F4000C30F500730884008313000886
:100E9E00F600F30A7408840076088000F40AF50B55
:100EAE004B2F83120313C501C6018312031345088A
:100EBE00383E8400831300080A128A114A260A1249
:100ECE008A11013083120313C5070318C60A0030B6
:100EDE00C6074608803AFF0080307F02031D792F37
:100EEE000B304502031C7C2F7D2F5C2F83120313C6
:100EFE0044080A128A114A260A128A1108000A1296
:100F0E008A1193260A128A110A128A11AD260A1222
:100F1E008A11831203131A08F700F8017708F900F3
:100F2E007808FA00D62F6130990079080A128A11D2
:100F3E003A270A128A1161300A128A11EE260A1213
:100F4E008A11902F6230990079080A128A113A2775
:100F5E000A128A1162300A128A11EE260A128A11B8
:100F6E00902F6330990079080A128A113A270A12D3
:100F7E008A1163300A128A11EE260A128A11902FF4
:100F8E006430990079080A128A113A270A128A11D6
:100F9E0064300A128A11EE260A128A11902F7A08EC
:100FAE00003A0319DB2F902F7908413A03199A2F33
:100FBE00033A0319A92F013A0319B82F073A031957
:100FCE00C72F902F0A128A11002883133830FD0084
:100FDE000630FE006130FF00203084000A128A11B4
:100FEE003B260A128A11FB01FC0183010A128A11A7
:020FFE00862F3C
:08400000FF3FFF3FFF3FFF3FC0
:02400E003B3F36
:00000001FF
