:060000000A128A11DB2F39
:100970007E088A007F0882000A128A11B8240A12AF
:100980008A118000840A04087D0603190034FF0AD6
:100990000319FE0ABC2CF200831203130615720819
:1009A00087008615F730F00070088605C330F10027
:1009B000CD30F000F00BDA2CF10BDA2C08004234C9
:1009C0006134743474346534723479342034483486
:1009D000693467346834003400340034003400343F
:1009E000003400340034F200FB30F0007008831251
:1009F00003138605720887008615F730F00070082B
:100A00008605C330F100CD30F000F00B052DF10B61
:100A1000052D08007008710403190F2D102D3F2DAE
:100A2000F501F50A1E2D01300310F00DF10DFF3E0A
:100A3000031D142D0130F4007408F507F11F212D5A
:100A4000222D132D71087302031D282D70087202C8
:100A5000031C2B2D2C2D322D7008F2027108031C63
:100A6000F303F30201300310F10CF00CFF3E031D01
:100A7000332D0130F502031D3E2D3F2D222D73082D
:100A8000F1007208F00008004234613474347434A8
:100A900065347234793420344E346F3472346D34AA
:100AA00061346C34003400340034003400340034D9
:100AB000423461347434743465347234793420349B
:100AC0004C346F3477340034003400340034003454
:100AD000003400340034003442344134543454344B
:100AE00045345234593420343D34203420342034B9
:100AF00020342034203456340034003400340034A0
:100B0000831603138701F03086007F30F3007308EB
:100B1000810538300A128A11F3240A128A11C3306F
:100B2000F400CD30F300F30B932DF40B932D08302C
:100B30000A128A11F3240A128A11C330F400CD304C
:100B4000F300F30BA12DF40BA12D01300A128A1131
:100B5000F3240A128A11C330F400CD30F300F30BF2
:100B6000AF2DF40BAF2D0C300A128A11F3240A12A8
:100B70008A11C330F400CD30F300F30BBD2DF40B1C
:100B8000BD2D0800FB01FC01760877040319C92D6F
:100B9000CA2D012EFD01FD0AD82D01300310F60DDE
:100BA000F70DFF3E031DCE2D0130FA007A08FD0738
:100BB000F71FDB2DDC2DCD2D01300310FB0DFC0DBF
:100BC000FF3E031DDD2D77087902031DE92D760810
:100BD0007802031CEC2DED2DF42D7608F802770831
:100BE000031CF903F9027B1401300310F70CF60C17
:100BF000FF3E031DF52D0130FD02031D002E012EC9
:100C0000DC2D7C08F7007B08F6000800C1300A12D2
:100C10008A11F3240A128A11C330F600CD30F50090
:100C2000F50B102EF60B102E06300A128A11F32443
:100C30000A128A11C330F600CD30F500F50B1E2ED6
:100C4000F60B1E2EF701F801003074029B300319D9
:100C50007302031C2C2E2D2E412E00307402AF3057
:100C6000031973020318352E362E412E7708343EB1
:100C70008400831300080A128A11CB240A128A11F5
:100C8000682E00307402AF3003197302031C492E22
:100C90004A2E5E2E00307402CD3003197302031801
:100CA000522E532E5E2E7708203E840083130008B8
:100CB0000A128A11CB240A128A11682E7708A03EE4
:100CC0008400831300080A128A11CB240A128A11A5
:100CD0000130F7070318F80A0030F8077808803A5F
:100CE000FF0080307F02031D772E0F307702031C38
:100CF0007A2E7B2E242E08008A300A128A11F324C1
:100D00000A128A11C33083120313DF00CC30DE00D5
:100D1000DE0B882EDF0B882E000006300A128A11A7
:100D2000F3240A128A11C33083120313DF00CC307C
:100D3000DE00DE0B992EDF0B992E00006430F600EA
:100D40000030F700831203135D08F9005C08F80017
:100D50000A128A11C2250A128A1176088312031315
:100D6000DE00DF015E08EB005F08EC000A30F600F1
:100D70000030F7005D08F3005C08F2006430F0001A
:100D80000030F1000A128A110A250A128A1171082C
:100D9000F9007008F8000A128A11C2250A128A1195
:100DA000760883120313DE00DF015E08E9005F08A6
:100DB000EA000A30F0000030F1005D08F3005C0842
:100DC000F2000A128A110A250A128A117008831287
:100DD0000313DE00DF015E08E7005F08E8006B0830
:100DE000303E0A128A11CB240A128A11831203138D
:100DF0006908303E0A128A11CB240A128A112E3059
:100E00000A128A11CB240A128A118312031367086B
:100E1000303E0A128A11CB240A128A1108000A12E3
:100E20008A1180250A128A119B3083120313E50070
:100E30000030E600831203130608E0006008E200B9
:100E4000C12F80300A128A11F3240A128A11C3308A
:100E500083120313E100CC30E000E00B2D2FE10BF7
:100E60002D2F000006300A128A11F3240A128A116B
:100E7000C33083120313E100CC30E000E00B3E2FBF
:100E8000E10B3E2F000083120313E301E401831200
:100E900003136308483E8400831300080A128A1172
:100EA000CB240A128A11013083120313E3070318BB
:100EB000E40A0030E4076408803AFF0080307F02D3
:100EC000031D642F10306302031C672F682F472F08
:100ED0009B3083120313E5000030E6009B30DC00FA
:100EE0000030DD000A128A117C260A128A119B301A
:100EF000F3000030F4000A128A1106260A128A1141
:100F00001A2F6508013EE50066080318013E003E01
:100F1000E60001306602003003196502031C912FC0
:100F2000922F962FFF30E5000030E6006608DD00C6
:100F30006508DC000A128A117C260A128A118312C3
:100F400003136608F4006508F3000A128A110626E6
:100F50000A128A111A2F6508FF3EE5006608031879
:100F6000013EFF3EE600003066029B300319650239
:100F70000318BB2FBC2F962F9B30E5000030E600F6
:100F8000962F6208F039E000E1016108003A031988
:100F9000CA2F1A2F6008703A0319682FC03A031934
:100FA000AB2F603A0319812F303A0319212F1A2FE2
:100FB0000A128A1100288313B430FD000430FE00A9
:100FC000DF30FF00A03084000A128A11BC240A120C
:100FD0008A115C30FD000530FE004430FF002030F7
:100FE00084000A128A11BC240A128A11E701E8015E
:100FF000E901EA01EB01EC0183010A128A110F2FCA
:08400000FF3FFF3FFF3FFF3FC0
:02400E003B3F36
:00000001FF
