:060000000A128A11FC2F18
:100CBA000130F0020030031CF103F10270087104E4
:100CCA00031D682E692E5D2E0800FB00FA017B1CAD
:100CDA006F2E702E742E7808F9007908FA0703101F
:100CEA00F80D0310FB0C7B08031D7C2E7D2E6C2E49
:100CFA007A080800F30083120313071773088800A1
:100D0A0087177F30F20072088705E830F000033059
:100D1A00F1000A128A115D260A128A110800F300EC
:100D2A00BF30F20072088312031387057308880024
:100D3A0087177F30F20072088705E830F000033029
:100D4A00F1000A128A115D260A128A1108000A1293
:100D5A008A11C4260A128A11DB3083120313A700F0
:100D6A000330A800AB30A9000230AA000A128A1187
:100D7A009B270A128A11C02E0A128A11002883168A
:100D8A0003138701880130300A128A1194260A1245
:100D9A008A1130300A128A1194260A128A113030C6
:100DAA000A128A1194260A128A113C300A128A11EE
:100DBA0094260A128A1108300A128A1194260A12F3
:100DCA008A1101300A128A1194260A128A110630EF
:100DDA000A128A1194260A128A110C300A128A11EE
:100DEA0094260A128A110800F501F60170087104A6
:100DFA000319002F012F382FF701F70A0F2F01309F
:100E0A000310F00DF10DFF3E031D052F0130F40014
:100E1A007408F707F11F122F132F042F0130031044
:100E2A00F50DF60DFF3E031D142F71087302031D05
:100E3A00202F70087202031C232F242F2B2F7008D7
:100E4A00F2027108031CF303F30275140130031054
:100E5A00F10CF00CFF3E031D2C2F0130F702031D8D
:100E6A00372F382F132F7608F1007508F000080085
:100E7A0083120313A601A60A7E2FF630A0002008CB
:100E8A00F8007D08F3007C08F2000A30F000003018
:100E9A00F1000A128A11F9260A128A1170080A1236
:100EAA008A116A260A128A117C0783120313A10087
:100EBA002108A5002508A0002608223E8400200853
:100ECA00831380000A30F0000030F1007D08F3003F
:100EDA007C08F2000A128A11F9260A128A1171088C
:100EEA00FD007008FC00013083120313A0002008E3
:100EFA00A6077C087D04031D832F842F422F01300F
:100F0A0083120313A602952F2608223E8400831318
:100F1A000008303E0A128A117F260A128A11842F8B
:100F2A002608031D992F9A2F892F0800831203136D
:100F3A002A082802031DA32F29082702031CA62F0B
:100F4A00A72FB42F29082702AC002A08031C2A0A53
:100F5A002802AD002B30AB002B08AE00C02F2708AB
:100F6A002902AC002808031C280A2A02AD002D30E9
:100F7A00AB002B08AE0082300A128A1194260A129C
:100F8A008A11831203132808FD002708FC000A129D
:100F9A008A113D270A128A112D300A128A117F26D8
:100FAA000A128A11831203132A08FD002908FC0079
:100FBA000A128A113D270A128A113D300A128A1131
:100FCA007F260A128A11831203132E080A128A1123
:100FDA007F260A128A11831203132D08FD002C089A
:100FEA00FC000A128A113D270A128A11080083019D
:060FFA000A128A11AC2E60
:08400000FF3FFF3FFF3FFF3FC0
:02400E003B3F36
:00000001FF
