:060000000A128A11ED2F27
:100C54007E088A007F0882000A128A112A260A1254
:100C64008A118000840A04087D0603190034FF0AEF
:100C74000319FE0A2E2E3F3430346D347934723425
:100C84005B345F3431347F347334C034F934A43486
:100C9400B034993492348234F83480349834FF3048
:100CA400831603138600831203138601831603132A
:100CB40087018312031387018316031388018312A8
:100CC400031388017F30F000700883160313810535
:100CD400080083120313BE00343084002A30F0006D
:100CE4000408F1000A30F20070088400831300083D
:100CF400F300F00A7108840073088000F10AF20B13
:100D0400762E3E08343E84000008870008008312D3
:100D14000313BE00343084002030F0000408F100D6
:100D24000A30F2007008840083130008F300F00A0C
:100D34007108840073088000F10AF20B942E3E08B7
:100D4400343E84000008880008000A128A115126E3
:100D54000A128A1183120313C30100300A128A1182
:100D6400E3260A128A11831203130608FC007C0886
:100D7400C200C42E0130FC007C08C307D42E01300D
:100D8400C302D42E4208FC00FD017D08003A031979
:100D9400CC2ED42E7C08FD3A0319C12E033A031934
:100DA400BC2ED42E43080A128A11E3260A128A1191
:100DB400FC007C0883120313C300B52E0A128A11A7
:100DC400002883120313C10064304102031CEB2E7C
:100DD400EC2EF02E6330F9007908C1000A30F000DF
:100DE4000030F1004108F900FA017908F2007A08AC
:100DF400F3000A128A112D270A128A117008FB00C7
:100E04007B0883120313C0000A30F0000030F100A5
:100E140040084102F200F301031CF3030A128A1191
:100E240086270A128A117008F900790883120313BD
:100E3400BF003F080A128A116B260A128A11831214
:100E4400031340080A128A1189260A128A1183128E
:100E5400031341080800F601F31F312F322F392FF5
:100E6400F209F309F20A0319F30AF601F60AF11F6B
:100E74003C2F3D2F422FF009F109F00A0319F10A22
:100E8400700871040319472F482F772FF501F50ACD
:100E9400562F01300310F00DF10DFF3E031D4C2FB2
:100EA4000130F4007408F507F11F592F5A2F4B2F06
:100EB40071087302031D602F70087202031C632FF4
:100EC400642F6A2F7008F2027108031CF303F30203
:100ED40001300310F10CF00CFF3E031D6B2F0130A9
:100EE400F502031D762F772F5A2F760803197B2FCF
:100EF4007C2F812FF209F309F20A0319F30A73080C
:100F0400F1007208F0000800F601F11F8A2F8B2F00
:100F1400922FF009F109F00A0319F10AF601F60A11
:100F2400F31F952F962F9F2FF209F309F20A031945
:100F3400F30A0130F4007408F606F701F8017008AA
:100F440071040319A62FA72FDE2FF501F50AB52F7B
:100F540001300310F00DF10DFF3E031DAB2F0130E6
:100F6400F4007408F507F11FB82FB92FAA2F013028
:100F74000310F70DF80DFF3E031DBA2F710873021D
:100F8400031DC62F70087202031CC92FCA2FD12F4C
:100F94007008F2027108031CF303F30277140130A2
:100FA4000310F10CF00CFF3E031DD22F0130F502AB
:100FB400031DDD2FDE2FB92F76080319E22FE32F4F
:100FC400E82FF709F809F70A0319F80A7808F10075
:100FD4007708F000080083133430FD000630FE006B
:100FE4003D30FF00203084000A128A112E260A1296
:0C0FF4008A11C30183010A128A11A72E82
:08400000FF3FFF3FFF3FFF3FC0
:02400E003B3F36
:00000001FF
