:100000000A128A11D62FF1007108F00070088312CD
:100010000313BF000800F2007208F0000430031060
:10002000F00CFF3E031D0F287008F1007108F3006B
:1000300073080800DF30F000700883160313910581
:100040000A128A15F3270A128A118316031311164E
:100050000800F200831203138701720888008030C1
:10006000870087010430F100E430F000F00B3628FF
:10007000F10B36280000080083120313A5002508A1
:100080000A128A1167220A128A11FC007C08831264
:100090000313A6002608FC007C08C0000800831299
:1000A0000313A50025080A128A1167220A128A1171
:1000B000FC007C0883120313A6002608FC007C08C1
:1000C000BD00080083120313A50025080A128A1137
:1000D00067220A128A11FC007C0883120313A6000F
:1000E0002608FC007C08C100080083120313A50049
:1000F00025080A128A1167220A128A11FC007C085C
:1001000083120313A6002608FC007C08BC0008002C
:1001100083120313A50025080A128A1167220A1206
:100120008A11FC007C0883120313A6002608FC0039
:100130007C08C2000800F2004030831203138700DD
:1001400072088800C0308700403087000430F1001A
:10015000E430F000F00BAA28F10BAA2800000800F8
:10016000F700F601771CB528B628BA287408F50000
:100170007508F6070310F40D0310F70C7708031D3C
:10018000C228C328B22876080800F2000A128A158D
:10019000F3270A128A11720883120313930008309E
:1001A0000C04F0000030F100700871040319D92824
:1001B000DA28CF28F730F00070088C050800F4002A
:1001C00074080A128A110B200A128A11303E0A1290
:1001D0008A119B200A128A1174080A128A15C427F0
:1001E0000A128A11303E0A128A119B200A128A11C1
:1001F0003A300A128A119B200A128A110800F40070
:1002000074080A128A110B200A128A11303E0A124F
:100210008A119B200A128A1174080A128A15C427AF
:100220000A128A11303E0A128A119B200A128A1180
:1002300020300A128A119B200A128A1108000A1221
:100240008A15F3270A128A118316031391150830B1
:1002500083120C04F0000030F100700871040319DF
:10026000322933292729F730F00070088C050A124B
:100270008A15F3270A128A11831203131308080040
:10028000F400C0300A128A1129200A128A11740857
:100290000A128A110B200A128A11303E0A128A11A0
:1002A0009B200A128A1174080A128A15C4270A129E
:1002B0008A11303E0A128A119B200A128A112030BC
:1002C0000A128A119B200A128A1108008312031352
:1002D000A50025080A128A1167220A128A11FD0058
:1002E0007D0883120313A6000D302502031C792913
:1002F0007A297F29BF30FD007D08A6058B292617A6
:100300007C08031D842985298A29DF30FD007D08AA
:10031000A6058B29A6162608FD007D08BE0008004C
:10032000F40032300A128A119B200A128A113030EE
:100330000A128A119B200A128A1174080A128A1161
:100340000B200A128A11303E0A128A119B200A12CF
:100350008A1174080A128A15C4270A128A11303EBB
:100360000A128A119B200A128A1120300A128A115D
:100370009B200A128A11080083160313940191012D
:1003800028308312031394002008A4002108A5003C
:100390002208A6002308A70002300310A40DA50D13
:1003A000A60DA70DFF3E031DCD292708F300260843
:1003B000F2002508F1002408F0000030F7005B305F
:1003C000F6008D30F5008030F4000A128A11002406
:1003D0000A128A117008FF3E831603139300080067
:1003E000831203133F080A128A1159250A128A112F
:1003F000831203133E080A128A11DF200A128A119F
:10040000831203133D080A128A11FF200A128A116F
:100410008312031341080A128A1140210A128A1119
:100420008312031342080A128A119D260A128A11A6
:100430008312031343080A128A1190210A128A11A7
:100440008312031340080A128A11F6250A128A1130
:10045000080083120313AF002F080A128A117520B7
:100460000A128A118312031327080A128A114F20D5
:100470000A128A11831203132908AE002E08FC0009
:1004800028080A128A1166210A128A11831203139C
:100490002A080A128A1103200A128A1183120313EE
:1004A0002B080A128A113C200A128A1183120313A4
:1004B0002C080A128A1162200A128A11831203136D
:1004C0002D080A128A1188200A128A110800831244
:1004D0000313A3000A30F0000030F1002308F900F4
:1004E000FA017908F2007A08F3000A128A1143230C
:1004F0000A128A117008FB007B0883120313A40000
:100500000A30F0000030F10024082302F200F30169
:10051000031CF3030A128A1166240A128A11700856
:10052000F900790883120313A0002008F9000330B2
:100530000310F90DFF3E031D982A0310790DFA00F0
:100540007A08A1002408F9007908A20021082204F1
:1005500008000A128A119C230A128A113B30831266
:100560000313B0003008A7000C30B1003108A80018
:10057000A9010630B2003208AA001530B3003308D2
:10058000AB000C30B4003408AC001830B5003508AE
:10059000AD0022300A128A1129220A128A11003073
:1005A00083120313A3000130A2008630A100A03003
:1005B000A0000A128A11BC210A128A1100300A1204
:1005C0008A11F3220A128A1100300A128A11CD24EC
:1005D0000A128A110A128A11F0210A128A11E42AD7
:1005E0000A128A110028F3000A128A15D5270A1266
:1005F0008A11D0300A128A11C5200A128A11730892
:100600000A128A11C5200A128A11831203133C08A8
:100610000A128A11C5200A128A11831203133D0897
:100620000A128A11C5200A128A11831203133E0886
:100630000A128A11C5200A128A11831203133F0875
:100640000A128A11C5200A128A1183120313400864
:100650000A128A11C5200A128A1183120313410853
:100660000A128A11C5200A128A1183120313420842
:100670000A128A11C5200A128A110A128A15DE2767
:100680000A128A110800F601F31F472B482B4F2B43
:10069000F209F309F20A0319F30AF601F60AF11F47
:1006A000522B532B582BF009F109F00A0319F10AC8
:1006B0007008710403195D2B5E2B8D2BF501F50A73
:1006C0006C2B01300310F00DF10DFF3E031D622B6A
:1006D0000130F4007408F507F11F6F2B702B612BAC
:1006E00071087302031D762B70087202031C792BAC
:1006F0007A2B802B7008F2027108031CF303F302BB
:1007000001300310F10CF00CFF3E031D812B013072
:10071000F502031D8C2B8D2B702B76080319912B62
:10072000922B972BF209F309F20A0319F30A7308C3
:10073000F1007208F00008008316031388011830D6
:100740008700831203138701880138300A128A1147
:1007500029200A128A111430F4007930F300F30BC7
:10076000AF2BF40BAF2BB42B08300A128A112920BF
:100770000A128A111430F4007930F300F30BBE2B07
:10078000F40BBE2BC32B01300A128A1129200A1246
:100790008A111430F4007930F300F30BCD2BF40BF5
:1007A000CD2BD22B0C300A128A1129200A128A1161
:1007B0001430F4007930F300F30BDC2BF40BDC2B5A
:1007C000E12B80300A128A1129200A128A11143072
:1007D000F4007930F300F30BEB2BF40BEB2BF02B45
:1007E00006300A128A1129200A128A111430F400E4
:1007F0007930F300F30BFA2BF40BFA2BFF2B0800E4
:100800000030FC000030FB000030FA000030F9003E
:10081000730872047104700403190F2C102C5D2CE2
:10082000FD01FD0A202C0130F8000310F00DF10D40
:10083000F20DF30DF80B152C0130F8007808FD07C8
:10084000F31F232C242C132C0130F8000310F90D76
:10085000FA0DFB0DFC0DF80B262C73087702031D17
:100860003B2C72087602031D3B2C71087502031D98
:100870003B2C70087402031C3E2C3F2C4E2C70083D
:10088000F4027108031C710FF5027208031C720F49
:10089000F6027308031C730FF7027914013003107A
:1008A000F30CF20CF10CF00CFF3E031D4F2C013049
:1008B000FD02031D5C2C5D2C242C7C08F3007B08BE
:1008C000F2007A08F1007908F0000800F601F11F43
:1008D0006A2C6B2C722CF009F109F00A0319F10A49
:1008E000F601F60AF31F752C762C7F2CF209F3091A
:1008F000F20A0319F30A0130F4007408F606F7014E
:10090000F801700871040319862C872CBE2CF501A0
:10091000F50A952C01300310F00DF10DFF3E031D7B
:100920008B2C0130F4007408F507F11F982C992CDA
:100930008A2C01300310F70DF80DFF3E031D9A2C91
:1009400071087302031DA62C70087202031CA92CE7
:10095000AA2CB12C7008F2027108031CF303F302F5
:10096000771401300310F10CF00CFF3E031DB22C84
:100970000130F502031DBD2CBE2C992C76080319FD
:10098000C22CC32CC82CF709F809F70A0319F80A76
:100990007808F1007708F0000800F4000A128A15C0
:1009A000D5270A128A11D0300A128A11C5200A12DC
:1009B0008A1174080A128A11C5200A128A110A12B1
:1009C0008A15CC270A128A11D1300A128A11C52041
:1009D0000A128A110A128A111F210A128A11F300BF
:1009E000730883120313BD000A128A111A200A1217
:1009F0008A110A128A111F210A128A11F300730840
:100A000083120313BE000A128A111A200A128A11D5
:100A10000A128A111F210A128A11F3007308831225
:100A20000313BF000A128A111A200A128A110A122D
:100A30008A111F210A128A11F3007308831203130B
:100A4000C0000A128A111A200A128A110A128A1187
:100A50001F210A128A11F300730883120313C100C5
:100A60000A128A111A200A128A110A128A111F21E7
:100A70000A128A11F300730883120313C2000A12C8
:100A80008A111A200A128A110A128A111F210A12C7
:100A90008A11F300730883120313C3000A128A1524
:100AA000E7270A128A110A128A15DE270A128A110A
:100AB0000800FC0080300A128A1129200A128A11CB
:100AC000753084008312031336088000840A3708C7
:100AD0008000840A38088000840A39088000840A6B
:100AE0003A088000840A3B088000FB017B08753EC1
:100AF000840000080A128A119B200A128A11013010
:100B0000F4007408FB0705307B02031C882D892D37
:100B1000762D7C1B8C2D8D2DA62D7C080A128A111A
:100B20000B200A128A11303E0A128A119B200A12E7
:100B30008A117C080A128A15C4270A128A11303ECB
:100B40000A128A119B200A128A11EF2DBF30F4007D
:100B50007408FC058E300A128A1129200A128A11A3
:100B6000FC1AB32DB42DC12D41300A128A119B20DD
:100B70000A128A114D300A128A119B200A128A1118
:100B8000D12DDF30F4007408FC0550300A128A11B0
:100B90009B200A128A114D300A128A119B200A12D8
:100BA0008A1185300A128A1129200A128A117C08BA
:100BB0000A128A110B200A128A11303E0A128A1177
:100BC0009B200A128A117C080A128A15C4270A126D
:100BD0008A11303E0A128A119B200A128A113A3079
:100BE0000A128A119B200A128A110800F5007D2E34
:100BF00053300A128A119B200A128A1155300A12A8
:100C00008A119B200A128A114E300A128A119B20E7
:100C10000A128A119C2E4D300A128A119B200A1248
:100C20008A114F300A128A119B200A128A114E3003
:100C30000A128A119B200A128A119C2E54300A1221
:100C40008A119B200A128A1155300A128A119B20A0
:100C50000A128A1145300A128A119B200A128A113F
:100C60009C2E57300A128A119B200A128A11453095
:100C70000A128A119B200A128A1144300A128A1120
:100C80009B200A128A119C2E54300A128A119B2032
:100C90000A128A1148300A128A119B200A128A11FC
:100CA00055300A128A119B200A128A119C2E463056
:100CB0000A128A119B200A128A1152300A128A11D2
:100CC0009B200A128A1149300A128A119B200A12AB
:100CD0008A119C2E53300A128A119B200A128A1103
:100CE00041300A128A119B200A128A1154300A12CA
:100CF0008A119B200A128A119C2E7508F300F401B8
:100D00007408003A0319852E9C2E7308013A0319C2
:100D1000F82D033A03190B2E013A03191E2E073A38
:100D20000319312E013A0319442E033A0319572EA1
:100D3000013A03196A2E9C2E0800FB007F30F80050
:100D40007808FB057B080A128A15C4270A128A1143
:100D5000F8000A30F9007908F4007B080A128A11B9
:100D60000B200A128A110A128A11B0200A128A1163
:100D70007807FA007A08FB00A12F4A300A128A117C
:100D80009B200A128A1141300A128A119B200A12F2
:100D90008A114E300A128A119B200A128A11CF2F13
:100DA00046300A128A119B200A128A1145300A1213
:100DB0008A119B200A128A1142300A128A119B2042
:100DC0000A128A11CF2F4D300A128A119B200A1263
:100DD0008A1141300A128A119B200A128A1152305C
:100DE0000A128A119B200A128A11CF2F41300A124F
:100DF0008A119B200A128A1150300A128A119B20F4
:100E00000A128A1152300A128A119B200A128A1180
:100E1000CF2F4D300A128A119B200A128A114130BD
:100E20000A128A119B200A128A1159300A128A1159
:100E30009B200A128A11CF2F4A300A128A119B2056
:100E40000A128A1155300A128A119B200A128A113D
:100E50004E300A128A119B200A128A11CF2F4A3073
:100E60000A128A119B200A128A1155300A128A111D
:100E70009B200A128A114C300A128A119B200A12F6
:100E80008A11CF2F41300A128A119B200A128A112F
:100E900055300A128A119B200A128A1147300A1211
:100EA0008A119B200A128A11CF2F53300A128A11FD
:100EB0009B200A128A1145300A128A119B200A12BD
:100EC0008A1150300A128A119B200A128A11CF2FE0
:100ED0004F300A128A119B200A128A1143300A12DB
:100EE0008A119B200A128A1154300A128A119B20FF
:100EF0000A128A11CF2F4E300A128A119B200A1231
:100F00008A114F300A128A119B200A128A11563018
:100F10000A128A119B200A128A11CF2F44300A121A
:100F20008A119B200A128A1145300A128A119B20CD
:100F30000A128A1143300A128A119B200A128A115E
:100F4000CF2F7B08F800F9017908003A0319A92F7F
:100F5000CF2F7808013A0319BD2E033A0319D02E7A
:100F6000013A0319E32E073A0319F62E013A031941
:100F7000092F033A03191C2F013A03192F2F0F3A97
:100F80000319422F013A0319552F033A0319682F09
:100F9000013A03197B2F073A03198E2FCF2F2030E8
:100FA0000A128A119B200A128A1108000A128A1555
:100FB000BE270A128A11B6000A128A15BF270A1222
:100FC0008A11B7000A128A15C0270A128A11B800BE
:100FD0000A128A15C1270A128A11B9000A128A1543
:100FE000C2270A128A11BA000A128A15C3270A12E6
:100FF0008A11BB00BC01BD0183010A128A11A92A12
:101F7C00543449344D3445343A340034F10071084A
:101F8C000F39F0007008F200720808000A128A1566
:101F9C00F3270A128A1583160313911408000A12E8
:101FAC008A15F3270A128A158316031311140800D5
:101FBC000A128A15F3270A128A15831603131115B0
:101FCC0008008316031391160A128A15F3270A12B6
:101FDC008A1583160313111608008316031314199C
:101FEC00F82FF92FF32F11081F39031DFE2FFF2F88
:041FFC00F32F0800B7
:08400000FF3FFF3FFF3FFF3FC0
:02400E003B3F36
:00000001FF
