:060000000A128A11FB2F19
:100EFE000F3083160313860083120313860180308E
:100F0E0083160313870083120313870183160313BB
:100F1E0088018312031388017F30F0007008831656
:100F2E00031381052030980090308312031398002C
:100F3E00093083160313990008000A128A117F27BD
:100F4E000A128A11831203130608F1007108F300C6
:100F5E00BC2F41309900D22F42309900D22F43300E
:100F6E009900D22F44309900D22F7308F100F2016C
:100F7E007208003A0319C42FD22F7108073A0319C9
:100F8E00B92F0C3A0319B62F063A0319B32F033AA9
:100F9E000319B02FD22F1A08F1007108F400E22FB6
:100FAE0002308800A92F01308800A92F8801A92FAF
:100FBE0003308800A92F7408F100F2017208003A7C
:100FCE000319EA2FA92F7108613A0319D72F033A93
:100FDE000319DA2F013A0319DD2F073A0319DF2F10
:100FEE00A92F0A128A110028F50183010A128A110B
:020FFE00A42F1E
:08400000FF3FFF3FFF3FFF3FC0
:02400E003B3F36
:00000001FF
