:060000000A128A11FC2F18
:100F6200BD308316031387000230831203138700F8
:100F72000830F2009D30F1000530F000F00BBF2F79
:100F8200F10BBF2FF20BBF2FC62F4030831203137A
:100F920087000830F2009D30F1000530F000F00BC0
:100FA200D02FF10BD02FF20BD02FD72F423083123C
:100FB200031387000830F2009D30F1000530F00085
:100FC200F00BE12FF10BE12FF20BE12FE82F83124F
:100FD200031387010830F2009D30F1000530F00064
:100FE200F00BF12FF10BF12FF20BF12FF82FB52FA0
:0E0FF2000A128A11002883010A128A11B12FF7
:08400000FF3FFF3FFF3FFF3FC0
:02400E003B3F36
:00000001FF
