:060000000A128A110C280F
:10000800FE00030EF1000A08F2000A128A111528F0
:100018000A128A110F28F601F70183010A128A11C0
:100028007C280B1D1828192838280130F6070318D2
:10003800F70A0030F7072E3076067704031D2528C7
:100048002628342883120313071C2B282C28312830
:10005800FE30F0007008870532280714F601F70112
:10006800FB30F00070088B0572088A00710E83005F
:10007800FE0E7E0E09008312031387170430F50065
:10008800CF30F4000130F300F30B4828F40B482874
:10009800F50B48284F287F30F300730883120313A9
:1000A80087050430F500CF30F4000130F300F30B7E
:1000B8005B28F40B5B28F50B5B28622808007E3070
:1000C800831603138700831203138701C730F300D5
:1000D80073088316031381050730F300730881043E
:1000E800A030F30073088B04831203138101080006
:1000F8000A128A1163200A128A110A128A113F20F1
:0C0108000A128A1181280A128A110C28A0
:08400000FF3FFF3FFF3FFF3FC0
:02400E003B3F36
:00000001FF
