:060000000A128A11F42F20
:1008D00004308316031385003C308600880108002D
:1008E0009030831203139F008230831603139F00FE
:1008F0000800F20083120313061772088800861797
:100900001430F1007930F000F00B842CF10B842CC2
:10091000892C7F30F00070088312031386050800CD
:10092000F200BF30F00070088312031386057208CE
:10093000880086171430F1007930F000F00B9E2CFF
:10094000F10B9E2CA32C7F30F00070088312031350
:10095000860508000030FC000030FB000030FA0083
:100960000030F900701CB52CB62CCD2C7408F9079A
:10097000750803110318013E0319BF2CFA07760806
:1009800003110318013E0319C62CFB077708031156
:100990000318013E0319CD2CFC070130F8000310A9
:1009A000F40DF50DF60DF70DF80BCF2C01300310FB
:1009B000F30CF20CF10CF00CFF3E031DD72C730866
:1009C000720471047004031DE62CE72CB22C7C0821
:1009D000F3007B08F2007A08F1007908F0000800C3
:1009E00030300A128A1190240A128A110A30F40057
:1009F000BC30F300F30BFA2CF40BFA2C000030306F
:100A00000A128A1190240A128A11D630F300082D96
:100A1000092DF30B072D000030300A128A119024A3
:100A20000A128A113C300A128A1190240A128A1181
:100A300008300A128A1190240A128A1101300A120F
:100A40008A1190240A128A1106300A128A119024FF
:100A50000A128A110C300A128A1190240A128A1181
:100A60006230F4006530F300F30B342DF40B342DB9
:100A7000392D080073087204710470040319412DA4
:100A8000422D852DF901F90A522D0130F80003108D
:100A9000F00DF10DF20DF30DF80B472D0130F800BC
:100AA0007808F907F31F552D562D452D7308770249
:100AB000031D642D72087602031D642D71087502F2
:100AC000031D642D70087402031C672D682D762D9C
:100AD0007008F4027108031C710FF5027208031C00
:100AE000720FF6027308031C730FF7020130031034
:100AF000F30CF20CF10CF00CFF3E031D772D0130CE
:100B0000F902031D842D852D562D7708F3007608F4
:100B1000F2007508F1007408F0000800003083123C
:100B20000313AB000030AA000030A9000030A80079
:100B3000230822042104200403199F2DA02DED2D4C
:100B4000AC01AC0AB02D0130FD000310A00DA10DC9
:100B5000A20DA30DFD0BA52D0130FD007D08AC07F6
:100B6000A31FB32DB42DA32D0130FD000310A80D3C
:100B7000A90DAA0DAB0DFD0BB62D23082702031DF1
:100B8000CB2D22082602031DCB2D21082502031D93
:100B9000CB2D20082402031CCE2DCF2DDE2D2008C6
:100BA000A4022108031C210FA5022208031C220F06
:100BB000A6022308031C230FA702281401300310E8
:100BC000A30CA20CA10CA00CFF3E031DDF2D0130D5
:100BD000AC02031DEC2DED2DB42D2B08A3002A082B
:100BE000A2002908A1002808A00008000A128A1102
:100BF00068240A128A110A128A1170240A128A11B0
:100C00000A128A11F0240A128A11953083120313F2
:100C10009F001F190C2E0D2E092E1E08B700B801BB
:100C20003708BD003808BE00831603131E08831260
:100C30000313B700B8013708BF003808C0003D08EB
:100C4000B800B7013F083704B90040083804BA00BB
:100C5000BB01BC010030A3000030A2000330A100A2
:100C6000FF30A0003C08F3003B08F2003A08F10016
:100C70003908F0000030F7000030F6000030F500D1
:100C80006430F4000A128A11AA240A128A11730825
:100C900083120313A7007208A6007108A50070084C
:100CA000A4000A128A118E250A128A1183120313D4
:100CB0002308C4002208C3002108C2002008C10084
:100CC0004408B0004308AF004208AE004108AD0040
:100CD0000A128A1116270A128A1183120313440872
:100CE000F3004308F2004208F1004108F0000A1244
:100CF0008A1180260A128A11052E0A128A110028EA
:100D00007308031D902E7208031D902E7108031D99
:100D1000902E1A307002031D8D2E0318902E912EE6
:100D2000992E831203130614FD30F400740886050F
:100D3000152F7308031DA92E7208031DA92E710813
:100D4000031DA92E33307002031DA62E0318A92EF1
:100D5000AA2EC32E7308031DBB2E7208031DBB2EC3
:100D60007108031DBB2E1A307002031DB72E031C21
:100D7000BA2EBB2EC32E831203138614FE30F4004A
:100D800074088605152F7308031DD32E7208031DE2
:100D9000D32E7108031DD32E4C307002031DD02EAC
:100DA0000318D32ED42EEC2E7308031DE52E7208E3
:100DB000031DE52E7108031DE52E33307002031D5F
:100DC000E12E031CE42EE52EEC2E0330F400740813
:100DD000831203138604152F7308031DFC2E72085B
:100DE000031DFC2E7108031DFC2E65307002031DCF
:100DF000F92E0318FC2EFD2E152F7308031D0E2F40
:100E00007208031D0E2F7108031D0E2F4C30700247
:100E1000031D0A2F031C0D2F0E2F152FFC30F4007D
:100E20007408831203138605152F080000308312FF
:100E30000313A3000030A2000030A1006430A00022
:100E40003008A7002F08A6002E08A5002D08A40032
:100E50000A128A118E250A128A118312031320089E
:100E6000B1003108C5000030A3000030A2000030FE
:100E7000A1000A30A0000030F3000030F200003082
:100E8000F1006430F0003008F7002F08F6002E085B
:100E9000F5002D08F4000A128A113A250A128A1167
:100EA000700883120313B1007108B2007208B30016
:100EB0007308B4000030F3000030F2000030F1009D
:100EC0000A30F0003008F7002F08F6002E08F50071
:100ED0002D08F4000A128A113A250A128A117008A4
:100EE00083120313B1027108031C710F782F792F3D
:100EF000B2027208031C720F7E2F7F2FB302730899
:100F0000031C730F842F852FB4023408A700330805
:100F1000A6003208A5003108A4000A128A118E2505
:100F20000A128A11831203132008B5003508C6007F
:100F30000030F3000030F2000030F1000A30F00021
:100F40003008F7002F08F6002E08F5002D08F400F1
:100F50000A128A113A250A128A11700883120313A1
:100F6000B1003108C70086300A128A1190240A1293
:100F70008A1183120313B6013608453E8400831399
:100F80000008303E0A128A1179240A128A1162304E
:100F900083120313B2006530B100B10BCD2FB20B39
:100FA000CD2F013083120313B1003108B60703308F
:100FB0003602031CDC2FDD2FBC2F00300A128A11F1
:100FC00079240A128A1125300A128A1179240A1208
:100FD0008A11623083120313B2006530B100B10B85
:100FE000EF2FB20BEF2F080083120313C101C201D0
:100FF000C301C401C501C60183010A128A11F62D7D
:08400000FF3FFF3FFF3FFF3FC0
:02400E003B3F36
:00000001FF
