:060000000A128A11FC2F18
:100F740083160313860183120313860108001830B5
:100F8400831603138700831203138701F430F000E0
:100F9400700894053430F000700894047F30F00039
:100FA4007008831603139405141708000A128A1193
:100FB400BA270A128A110A128A11C1270A128A113F
:100FC40083160313141CE72FE82FE22F8312031355
:100FD40013088600FE30F10071088316031394058C
:100FE400BF30F1007108831203139405E22F0A1233
:0C0FF4008A11002883010A128A11D82FEC
:08400000FF3FFF3FFF3FFF3FC0
:02400E003B3F36
:00000001FF
