:060000000A128A11FC2F18
:100C24000A128A1139260A128A118316031391149F
:100C340008000A128A1139260A128A11831603132C
:100C4400111408000A128A1139260A128A1183160D
:100C54000313111508008316031391160A128A113F
:100C640039260A128A1183160313111608008316F3
:100C7400031314193E2E3F2E392E11081F39031D5C
:100C8400442E452E392E0800F2000A128A11392604
:100C94000A128A11720883120313930008300C0499
:100CA400F0000030F1007008710403195A2E5B2E15
:100CB400502EF730F00070088C0508000A128A11D3
:100CC40039260A128A1183160313911508308312E8
:100CD4000C04F0000030F100700871040319732E45
:100CE400742E682EF730F00070088C050A128A11F1
:100CF40039260A128A1183120313130808000A12F0
:100D04008A111B260A128A11A0300A128A11462659
:100D14000A128A1174080A128A1146260A128A11C2
:100D240073080A128A1146260A128A1175080A12D1
:100D34008A1146260A128A110A128A1124260A12D4
:100D44008A110830F8009D30F7000530F600F60BE4
:100D5400A92EF70BA92EF80BA92EB02E08001830D7
:100D6400831603138700183083120313A400240886
:100D740087058316031388018312031388018316DE
:100D84000313940191012830831203139400200863
:100D9400A4002108A5002208A6002308A700023009
:100DA4000310A40DA50DA60DA70DFF3E031DD22E05
:100DB4002708F3002608F2002508F1002408F000B3
:100DC4000030F7005B30F6008D30F5008030F40021
:100DD4000A128A1196270A128A117008FF3E831696
:100DE4000313930008000A128A111B260A128A119F
:100DF400A0300A128A1146260A128A1174080A12AD
:100E04008A1146260A128A1173080A128A11462682
:100E14000A128A110A128A1112260A128A11A130A0
:100E24000A128A1146260A128A110A128A116026A7
:100E34000A128A11F5007508F8000A128A112D2683
:100E44000A128A110A128A1124260A128A117808AF
:100E54008312031388000830F7009D30F600053034
:100E6400F500F50B332FF60B332FF70B332F3A2FF7
:100E74000800003083120313A3000130A20086305F
:100E8400A100A030A0000A128A11B1260A128A1108
:100E94002330F3000030F400413083120313A80020
:100EA4002808F5000A128A1181260A128A112830AC
:100EB400F3000030F400423083120313A800280822
:100EC400F5000A128A1181260A128A113630F300BB
:100ED4000030F400433083120313A8002808F500FF
:100EE4000A128A1181260A128A112330F300003073
:100EF400F4000A128A11F5260A128A112830F30026
:100F04000030F4000A128A11F5260A128A113630CA
:100F1400F3000030F4000A128A11F5260A128A112D
:100F2400922F0A128A1100280030FC000030FB00C6
:100F34000030FA000030F900730872047104700480
:100F44000319A52FA62FF32FFD01FD0AB62F01309B
:100F5400F8000310F00DF10DF20DF30DF80BAB2FAB
:100F64000130F8007808FD07F31FB92FBA2FA92F15
:100F74000130F8000310F90DFA0DFB0DFC0DF80B10
:100F8400BC2F73087702031DD12F72087602031D4C
:100F9400D12F71087502031DD12F70087402031C30
:100FA400D42FD52FE42F7008F4027108031C710F9D
:100FB400F5027208031C720FF6027308031C730F08
:100FC400F702791401300310F30CF20CF10CF00C5D
:100FD400FF3E031DE52F0130FD02031DF22FF32F09
:100FE400BA2F7C08F3007B08F2007A08F100790834
:0C0FF400F000080083010A128A113B2F54
:08400000FF3FFF3FFF3FFF3FC0
:02400E003B3F36
:00000001FF
